:100000000C9445000C9462000C9462000C94620005
:100010000C9462000C9414030C9462000C94DC02A7
:100020000C9462000C9462000C9462000C94020325
:100030000C9462000C9462000C9462000C946200B8
:100040000C9462000C9462000C9462000C946200A8
:100050000C9462000C9462000C9462000C94620098
:100060000C9462000C946200CE00D500DD00E50027
:10007000ED00F500FD00D203FD03290455048204C0
:10008000AE04DB0408053405600511241FBECFEF64
:10009000D8E0DEBFCDBF11E0A0E0B1E0E0EAFBE0D8
:1000A00002C005900D92AA30B107D9F721E0AAE06D
:1000B000B1E001C01D92A531B207E1F70E94DF0156
:1000C0000C94CE050C940000DC0181E08C93ECE7ED
:1000D000F0E085E0808380818064808380818F7DF3
:1000E0008083EAE7F0E09081976090839081906848
:1000F0009083908190649083908196FDFDCF809154
:10010000780090917900EAE7F0E090819F77908302
:100110008C930895DB01882331F1E0E1F1E0482F71
:1001200050E0405F5E4F6BEA9C9180E8989F9001A1
:1001300011242927822F8295869587702827822F60
:10014000880F880F880F28272C93269F912D112424
:1001500096959695892F880F980F990F291B2193B3
:10016000E417F50709F7089590E0909389008093CC
:100170008800EFE6F0E08081826080830895EFE6FA
:10018000F0E080818C7F8083089590E08730910536
:10019000C8F5FC01EC5CFF4F0C94C80580E80E9498
:1001A000B40088B1887F88B9089580E70E94B400C0
:1001B000409A88B1897F88B9089580E60E94B4008A
:1001C000419A88B18A7F88B9089580E50E94B40079
:1001D00088B1836088B94298089580E40E94B40091
:1001E000429A88B18C7F88B9089580E30E94B40058
:1001F00088B1856088B94198089588B1876088B9C9
:100200000E94BF0008950F931F93CF93DF9318169A
:100210001906FCF4EB018B01080F191F86E00E9400
:10022000C5002FEF81EE94E0215080409040E1F72F
:1002300000C0000089910E94C5002FEF83ED90E37C
:10024000215080409040E1F700C00000C017D10766
:1002500029F786E00E94C5002FEF81EE94E021503F
:1002600080409040E1F700C00000DF91CF911F91E6
:100270000F910895FF920F931F93CF93DF931092E6
:100280000A01882309F487C0F82E00E016E01093D5
:100290000C01C02FD0E0C05FDE4F73C02FEF81EEA6
:1002A00094E0215080409040E1F700C00000909120
:1002B0000A019F5F90930A01988120910C0192138B
:1002C0004CC010920A010F5F2FEF81EE94E0215095
:1002D00080409040E1F700C0000025E0F2121FC00E
:1002E000053009F053C080910B018F5F80930B01A3
:1002F0008FEF93ED20E3815090402040E1F700C064
:10030000000086E00E94C5008FEF93ED20E381504E
:1003100090402040E1F700C0000084E04AC0F012A5
:1003200035C080910B018F5F80930B018FEF93EDB0
:1003300020E3815090402040E1F700C0000086E0BB
:100340000E94C5008FEF93ED20E381509040204044
:10035000E1F700C0000082E02CC020910A012530A6
:1003600021F4812F0E94C5000CC020910A01243184
:10037000E8F420910C01921721F090910C01963035
:10038000B9F490910A01953108F488CF10920A01CE
:100390000F1508F47CCF8FEF99E628E1815090404B
:1003A0002040E1F700C0000082E003C085E001C00A
:1003B00085E0DF91CF911F910F91FF900895219AD1
:1003C000109280008BE88093810080E88093820007
:1003D00087B1886187B984B18C6384B985B18C6336
:1003E00085B982E08093B00095E09093B10080934E
:1003F000700084E48093B3008AB18AB98BB18C6FAA
:100400008BB9EDE6F0E080818C6F808387B18760E7
:1004100087B978948FE091E00E94640002E06894CC
:10042000EE24E7F8F12C13E00F2EF8E6CF2ED12CB6
:10043000F02D11C010920B01F60180818460808341
:1004400086E00E94C50080910B0160E071E00E948F
:10045000B6050E94BF0080910E01882359F38130B8
:1004600009F4A2C08230A9F4F60180818B7F8083D9
:1004700080910B0160E071E00E94B60580910B0154
:1004800090E060E171E001960E94030110930E017B
:1004900002C0833069F4F60180818460808380919A
:1004A0000B018F5F0E943A0180930E01833099F314
:1004B00080910E01843009F05FC080910B0160E0F3
:1004C00071E00E94B605FFEF21EE84E0F15020407C
:1004D0008040E1F700C00000C3E0D0E080E00E946F
:1004E000C5009FEFE3ECF9E09150E040F040E1F708
:1004F00000C00000812F0E94C5002FEF83EC99E01F
:10050000215080409040E1F700C0000081E00E944F
:10051000C500EFEFF3EC29E0E150F0402040E1F7B7
:1005200000C0000084E00E94C5008FEF93ECE9E07A
:1005300081509040E040E1F700C00000802F0E9411
:10054000C500FFEF23EC89E0F15020408040E1F747
:1005500000C0000085E00E94C5009FEFE3ECF9E0D9
:100560009150E040F040E1F700C00000219709F011
:10057000B5CF10920E016FCF853009F06CCFF70127
:1005800010838FEF0E94B400FFEF21E18AE7F15062
:1005900020408040E1F700C000000E94BF00F7014A
:1005A000108210920E0157CF6FE071E085E00E943B
:1005B0008A0000930E0158CF1F920F920FB60F9230
:1005C00011242F933F934F935F936F937F938F9358
:1005D0009F93AF93BF93EF93FF9380E091E00E94CE
:1005E0007A03FF91EF91BF91AF919F918F917F918E
:1005F0006F915F914F913F912F910F900FBE0F9090
:100600001F9018951F920F920FB60F9211248F937F
:100610009F9395B182E0892785B99F918F910F9023
:100620000FBE0F901F9018951F920F920FB60F924A
:1006300011242F933F934F935F936F937F938F93E7
:100640009F93AF93BF93EF93FF9380910E0181111E
:1006500004C081E080930E013CC08330D1F58091CD
:100660000A018823B1F14A9905C010920D01109238
:100670000C012BC04B9906C081E080930D01809343
:100680000C0123C04C9906C082E080930D01809339
:100690000C011BC04D9906C083E080930D0180932F
:1006A0000C0113C04E9906C084E080930D01809325
:1006B0000C010BC04F9906C085E080930D0180931B
:1006C0000C0103C086E080930D0180910D010E9412
:1006D000C500FF91EF91BF91AF919F918F917F9155
:1006E0006F915F914F913F912F910F900FBE0F909F
:1006F0001F901895DC0114963C91149718968C91D4
:100700001897831325C048B181E090E09C011596AD
:100710000C90159702C0220F331F0A94E2F7242B86
:1007200028B928B114960C90149702C0880F991F0D
:100730000A94E2F78095822388B91696EC91169771
:10074000F0E015968C91159718968C93189722C007
:1007500048B181E090E0BC0102C0660F771F3A9576
:10076000E2F79B01242B28B928B115960C90159718
:1007700002C0880F991F0A94E2F78095822388B9F6
:100780001796EC911797F0E014968C9114971896A1
:100790008C931897EA30F10508F0BFC1E55CFF4F74
:1007A0000C94C80525B181E090E0BC010C9002C01A
:1007B000660F771F0A94E2F7AC0111960C9011971F
:1007C00002C0440F551F0A94E2F7362F342BAC01B8
:1007D00012960C90129702C0440F551F0A94E2F72C
:1007E000432B13960C9002C0880F991F0A94E2F7CE
:1007F000842B8095822385B9089545B181E090E0EE
:100800009C010C9002C0220F331F0A94E2F7242BA4
:1008100025B925B1BC0111960C90119702C0660F45
:10082000771F0A94E2F7AC0112960C90129702C05F
:10083000440F551F0A94E2F7462B13960C9002C002
:10084000880F991F0A94E2F7842B8095822385B93B
:10085000089545B181E090E09C0111960C901197AC
:1008600002C0220F331F0A94E2F7242B25B925B1C9
:10087000BC010C9002C0660F771F0A94E2F7AC012E
:1008800012960C90129702C0440F551F0A94E2F77B
:10089000462B13960C9002C0880F991F0A94E2F71A
:1008A000842B8095822385B9089535B181E090E04D
:1008B000BC010C9002C0660F771F0A94E2F7AC01EE
:1008C00011960C90119702C0440F551F0A94E2F73D
:1008D000262F242B232B25B925B1AC0112960C9081
:1008E000129702C0440F551F0A94E2F713960C901A
:1008F00002C0880F991F0A94E2F7842B8095822307
:1009000085B9089545B181E090E09C0112960C9064
:10091000129702C0220F331F0A94E2F7242B25B945
:1009200025B1BC010C9002C0660F771F0A94E2F754
:10093000AC0111960C90119702C0440F551F0A94F8
:10094000E2F7462B13960C9002C0880F991F0A9469
:10095000E2F7842B8095822385B9089535B181E033
:1009600090E0BC010C9002C0660F771F0A94E2F77A
:10097000AC0112960C90129702C0440F551F0A94B6
:10098000E2F7262F242B232B25B925B1AC01119694
:100990000C90119702C0440F551F0A94E2F713966A
:1009A0000C9002C0880F991F0A94E2F7842B80955F
:1009B000822385B9089535B181E090E0BC0111969C
:1009C0000C90119702C0660F771F0A94E2F7AC01F2
:1009D00012960C90129702C0440F551F0A94E2F72A
:1009E000262F242B232B25B925B1AC010C9002C056
:1009F000440F551F0A94E2F713960C9002C0880F1B
:100A0000991F0A94E2F7842B8095822385B9089573
:100A100035B181E090E0BC010C9002C0660F771FF9
:100A20000A94E2F7AC0111960C90119702C0440FA2
:100A3000551F0A94E2F7462B432B9C0112960C900B
:100A4000129702C0220F331F0A94E2F7242B25B914
:100A500025B113960C9002C0880F991F0A94E2F7F3
:100A60008095822385B9089545B181E090E09C018D
:100A700013960C90139702C0220F331F0A94E2F7CB
:100A8000242B25B925B1BC010C9002C0660F771F3D
:100A90000A94E2F7AC0111960C90119702C0440F32
:100AA000551F0A94E2F7462B12960C9002C0880F4D
:100AB000991F0A94E2F7842B8095822385B90895C3
:100AC00035B181E090E0BC010C9002C0660F771F49
:100AD0000A94E2F7AC0113960C90139702C0440FEE
:100AE000551F0A94E2F7262F242B232B25B925B175
:100AF000AC0111960C90119702C0440F551F0A9437
:100B0000E2F712960C9002C0880F991F0A94E2F740
:100B1000842B8095822385B9089535B181E090E0DA
:100B2000BC010C9002C0660F771F0A94E2F7AC017B
:100B300011960C90119702C0440F551F0A94E2F7CA
:100B4000462B432B9C0112960C90129702C0220F49
:100B5000331F0A94E2F7242B13960C9002C0880FDF
:100B6000991F0A94E2F7822B85B908959DEC899F1D
:100B7000912D1124969596959695392F330F232F05
:100B8000220F220F230F821BFB0186839783089578
:100B9000EE0FFF1F0590F491E02D0994F894FFCF1C
:0A0BA0000203040503040000000036
:00000001FF
