S014000053657175656E636547616D652E737265635D
S11300000C943E000C945B000C945B000C945B001D
S11300100C945B000C941E020C945B000C94DB01AA
S11300200C945B000C945B000C945B000C940C022D
S11300300C945B000C945B000C945B000C945B00D0
S11300400C945B000C945B000C945B000C945B00C0
S11300500C945B000C945B000C945B000C945B00B0
S11300600C945B000C945B00BB02E60212033E039B
S11300706B039703C403F1031D04490411241FBE39
S1130080CFEFD8E0DEBFCDBF11E0A0E0B1E0EEE7F6
S1130090F9E002C005900D92AA30B107D9F721E02A
S11300A0AAE0B1E001C01D92A731B207E1F70E94B6
S11300B049010C94BD040C940000823001F128F431
S11300C0882349F0813089F042C0843061F108F11D
S11300D0853099F13CC080E890E09093890080934A
S11300E0880082E080936F00089580E790E0909309
S11300F089008093880082E080936F00089580E6F1
S113010090E0909389008093880082E080936F0050
S1130110089580E590E0909389008093880082E0C0
S113012080936F00089580E490E090938900809319
S1130130880082E080936F00089580E390E09093BC
S113014089008093880082E080936F0008958FEF88
S113015090E0909389008093880082E080936F0000
S11301600895DF92EF92FF920F931F93CF93DF9343
S1130170E8E6F0E020812B7F20831816190664F549
S1130180CCE0D1E08C01045F1E4F0F2EF6E0DF2E91
S1130190F02D0F2EFFE6EF2EF12CF02DFE0199919C
S11301A098B980810E945D002FEF83ED90E3215088
S11301B080409040E1F700C00000D8B8F7011082F9
S11301C0FFEF21EE84E0F15020408040E1F700C0D1
S11301D00000C017D10711F7E8E6F0E080818460E1
S11301E08083DF91CF911F910F91FF90EF90DF906B
S11301F00895DC0181E08C93ECE7F0E085E08083F6
S113020080818064808380818F7D8083EAE7F0E051
S1130210908197609083908190689083908190649E
S11302209083908196FDFDCF809178009091790024
S1130230EAE7F0E090819F7790838C930895DB0147
S1130240882331F1ECE0F1E0482F50E0445F5E4F49
S11302506BEA9C9180E8989F900111242927822FB2
S11302608295869587702827822F880F880F880F9C
S113027028272C93269F912D112496959695892FA6
S1130280880F980F990F291B2193E417F50709F795
S11302900895219A82E08093B00095E09093B10094
S11302A08093700080EA8093B300109280008BE802
S11302B080938100EDE6F0E080818F638083789401
S11302C087B1876087B98AB1806C8AB984B18C633D
S11302D084B985B18C6385B98AB18AB98BB18F63CE
S11302E08BB98BE091E00E94F900C2E008E610E0CF
S11302F0D6E00F2EFFE6EF2EF12CF02D0FC0F80103
S1130300808184608083D8B940E051E060E070E08F
S113031080E090E00E94B304F701108280910A010A
S1130320882369F38130B9F1823069F440E051E007
S113033062E070E082E090E00E94B3048AE090E022
S11303400E94B10002C0833019F410920A01E6CF72
S1130350843081F440E051E063E070E083E090E0B9
S11303600E94B30480E091E00E949F0480910A01FE
S1130370843081F380910A01853081F640E051E0B8
S113038064E070E084E090E00E94B30480910A018C
S11303908530A1F3C3CF40E051E061E070E081E03B
S11303A090E00E94B3046BE071E08AE00E941F01B8
S11303B0C0930A01BBCF1F920F920FB60F92112464
S11303C01F932F933F934F935F936F937F938F93D9
S11303D09F93AF93BF93CF93DF93EF93FF93C2E8C1
S11303E0D0E010E8188380E091E00E946302188353
S11303F0FF91EF91DF91CF91BF91AF919F918F9139
S11304007F916F915F914F913F912F911F910F9029
S11304100FBE0F901F9018951F920F920FB60F9258
S113042011248F939F9395B182E0892785B99F9179
S11304308F910F900FBE0F901F9018951F920F92DF
S11304400FB60F9211242F933F934F935F936F93A3
S11304507F938F939F93AF93BF93EF93FF93809179
S11304600A01811103C081E080930A01489B0CC0FA
S1130470499B0CC04A9B0CC04B9B0CC04C9B0CC0B2
S11304804D9B0CC086E00BC080E009C081E007C032
S113049082E005C083E003C084E001C085E088B940
S11304A00E945D00FF91EF91BF91AF919F918F9159
S11304B07F916F915F914F913F912F910F900FBE5C
S11304C00F901F901895DC0114963C911497189680
S11304D08C911897831325C04BB181E090E09C0167
S11304E015960C90159702C0220F331F0A94E2F759
S11304F0242B2BB92BB114960C90149702C0880F9F
S1130500991F0A94E2F7809582238BB91696EC9191
S11305101697F0E015968C91159718968C9318976A
S113052022C04BB181E090E0BC0102C0660F771F8E
S11305303A95E2F79B01242B2BB92BB115960C901D
S1130540159702C0880F991F0A94E2F780958223B9
S11305508BB91796EC911797F0E014968C91149739
S113056018968C931897EA30F10508F0BFC1EC5C3B
S1130570FF4F0C94B70425B181E090E0BC010C90CE
S113058002C0660F771F0A94E2F7AC0111960C9033
S1130590119702C0440F551F0A94E2F7362F342BEB
S11305A0AC0112960C90129702C0440F551F0A9486
S11305B0E2F7432B13960C9002C0880F991F0A94FC
S11305C0E2F7842B8095822385B9089545B181E0B3
S11305D090E09C010C9002C0220F331F0A94E2F7B2
S11305E0242B25B925B1BC0111960C90119702C09A
S11305F0660F771F0A94E2F7AC0112960C901297DB
S113060002C0440F551F0A94E2F7462B13960C9030
S113061002C0880F991F0A94E2F7842B80958223E5
S113062085B9089545B181E090E09C0111960C9044
S1130630119702C0220F331F0A94E2F7242B25B925
S113064025B1BC010C9002C0660F771F0A94E2F733
S1130650AC0112960C90129702C0440F551F0A94D5
S1130660E2F7462B13960C9002C0880F991F0A9448
S1130670E2F7842B8095822385B9089535B181E012
S113068090E0BC010C9002C0660F771F0A94E2F759
S1130690AC0111960C90119702C0440F551F0A9497
S11306A0E2F7262F242B232B25B925B1AC01129672
S11306B00C90129702C0440F551F0A94E2F7139648
S11306C00C9002C0880F991F0A94E2F7842B80953E
S11306D0822385B9089545B181E090E09C0112968A
S11306E00C90129702C0220F331F0A94E2F7242BB6
S11306F025B925B1BC010C9002C0660F771F0A947E
S1130700E2F7AC0111960C90119702C0440F551FEB
S11307100A94E2F7462B13960C9002C0880F991F97
S11307200A94E2F7842B8095822385B9089535B124
S113073081E090E0BC010C9002C0660F771F0A9420
S1130740E2F7AC0112960C90129702C0440F551FA9
S11307500A94E2F7262F242B232B25B925B1AC01CB
S113076011960C90119702C0440F551F0A94E2F79A
S113077013960C9002C0880F991F0A94E2F7842BF9
S11307808095822385B9089535B181E090E0BC015C
S113079011960C90119702C0660F771F0A94E2F726
S11307A0AC0112960C90129702C0440F551F0A9484
S11307B0E2F7262F242B232B25B925B1AC010C906D
S11307C002C0440F551F0A94E2F713960C9002C01E
S11307D0880F991F0A94E2F7842B8095822385B9A8
S11307E0089535B181E090E0BC010C9002C0660F21
S11307F0771F0A94E2F7AC0111960C90119702C08E
S1130800440F551F0A94E2F7462B432B9C01129682
S11308100C90129702C0220F331F0A94E2F7242B84
S113082025B925B113960C9002C0880F991F0A941C
S1130830E2F78095822385B9089545B181E090E07F
S11308409C0113960C90139702C0220F331F0A9435
S1130850E2F7242B25B925B1BC010C9002C0660F28
S1130860771F0A94E2F7AC0111960C90119702C01D
S1130870440F551F0A94E2F7462B12960C9002C0BF
S1130880880F991F0A94E2F7842B8095822385B9F7
S1130890089535B181E090E0BC010C9002C0660F70
S11308A0771F0A94E2F7AC0113960C90139702C0D9
S11308B0440F551F0A94E2F7262F242B232B25B926
S11308C025B1AC0111960C90119702C0440F551F2D
S11308D00A94E2F712960C9002C0880F991F0A94AA
S11308E0E2F7842B8095822385B9089535B181E0A0
S11308F090E0BC010C9002C0660F771F0A94E2F7E7
S1130900AC0111960C90119702C0440F551F0A9424
S1130910E2F7462B432B9C0112960C90129702C0CF
S1130920220F331F0A94E2F7242B13960C9002C073
S1130930880F991F0A94E2F7822B85B90895FC0168
S11309408781893031F49681993051F41782168267
S113095008959681993021F48F5F878316820895D4
S11309609F5F96830895FA01878366830895EE0F47
S1110970FF1F0590F491E02D0994F894FFCF39
S10D097E0203040506070000000050
S9030000FC
